{"abi":[{"type":"constructor","inputs":[{"name":"_name","type":"string","internalType":"string"},{"name":"_symbol","type":"string","internalType":"string"}],"stateMutability":"nonpayable"},{"type":"function","name":"approve","inputs":[{"name":"to","type":"address","internalType":"address"},{"name":"tokenId","type":"uint256","internalType":"uint256"}],"outputs":[],"stateMutability":"nonpayable"},{"type":"function","name":"balanceOf","inputs":[{"name":"owner","type":"address","internalType":"address"}],"outputs":[{"name":"","type":"uint256","internalType":"uint256"}],"stateMutability":"view"},{"type":"function","name":"getApproved","inputs":[{"name":"tokenId","type":"uint256","internalType":"uint256"}],"outputs":[{"name":"","type":"address","internalType":"address"}],"stateMutability":"view"},{"type":"function","name":"isApprovedForAll","inputs":[{"name":"owner","type":"address","internalType":"address"},{"name":"operator","type":"address","internalType":"address"}],"outputs":[{"name":"","type":"bool","internalType":"bool"}],"stateMutability":"view"},{"type":"function","name":"mintNFT","inputs":[{"name":"_to","type":"address","internalType":"address"}],"outputs":[],"stateMutability":"nonpayable"},{"type":"function","name":"mintWithURI","inputs":[{"name":"_to","type":"address","internalType":"address"},{"name":"_tokenURI","type":"string","internalType":"string"}],"outputs":[],"stateMutability":"nonpayable"},{"type":"function","name":"name","inputs":[],"outputs":[{"name":"","type":"string","internalType":"string"}],"stateMutability":"view"},{"type":"function","name":"owner","inputs":[],"outputs":[{"name":"","type":"address","internalType":"address"}],"stateMutability":"view"},{"type":"function","name":"ownerOf","inputs":[{"name":"tokenId","type":"uint256","internalType":"uint256"}],"outputs":[{"name":"","type":"address","internalType":"address"}],"stateMutability":"view"},{"type":"function","name":"renounceOwnership","inputs":[],"outputs":[],"stateMutability":"nonpayable"},{"type":"function","name":"safeTransferFrom","inputs":[{"name":"from","type":"address","internalType":"address"},{"name":"to","type":"address","internalType":"address"},{"name":"tokenId","type":"uint256","internalType":"uint256"}],"outputs":[],"stateMutability":"nonpayable"},{"type":"function","name":"safeTransferFrom","inputs":[{"name":"from","type":"address","internalType":"address"},{"name":"to","type":"address","internalType":"address"},{"name":"tokenId","type":"uint256","internalType":"uint256"},{"name":"data","type":"bytes","internalType":"bytes"}],"outputs":[],"stateMutability":"nonpayable"},{"type":"function","name":"setApprovalForAll","inputs":[{"name":"operator","type":"address","internalType":"address"},{"name":"approved","type":"bool","internalType":"bool"}],"outputs":[],"stateMutability":"nonpayable"},{"type":"function","name":"setTokenURI","inputs":[{"name":"_URI","type":"string","internalType":"string"}],"outputs":[],"stateMutability":"nonpayable"},{"type":"function","name":"supportsInterface","inputs":[{"name":"interfaceId","type":"bytes4","internalType":"bytes4"}],"outputs":[{"name":"","type":"bool","internalType":"bool"}],"stateMutability":"view"},{"type":"function","name":"symbol","inputs":[],"outputs":[{"name":"","type":"string","internalType":"string"}],"stateMutability":"view"},{"type":"function","name":"tokenByIndex","inputs":[{"name":"index","type":"uint256","internalType":"uint256"}],"outputs":[{"name":"","type":"uint256","internalType":"uint256"}],"stateMutability":"view"},{"type":"function","name":"tokenOfOwnerByIndex","inputs":[{"name":"owner","type":"address","internalType":"address"},{"name":"index","type":"uint256","internalType":"uint256"}],"outputs":[{"name":"","type":"uint256","internalType":"uint256"}],"stateMutability":"view"},{"type":"function","name":"tokenURI","inputs":[{"name":"tokenId","type":"uint256","internalType":"uint256"}],"outputs":[{"name":"","type":"string","internalType":"string"}],"stateMutability":"view"},{"type":"function","name":"totalSupply","inputs":[],"outputs":[{"name":"","type":"uint256","internalType":"uint256"}],"stateMutability":"view"},{"type":"function","name":"transferFrom","inputs":[{"name":"from","type":"address","internalType":"address"},{"name":"to","type":"address","internalType":"address"},{"name":"tokenId","type":"uint256","internalType":"uint256"}],"outputs":[],"stateMutability":"nonpayable"},{"type":"function","name":"transferOwnership","inputs":[{"name":"newOwner","type":"address","internalType":"address"}],"outputs":[],"stateMutability":"nonpayable"},{"type":"event","name":"Approval","inputs":[{"name":"owner","type":"address","indexed":true,"internalType":"address"},{"name":"approved","type":"address","indexed":true,"internalType":"address"},{"name":"tokenId","type":"uint256","indexed":true,"internalType":"uint256"}],"anonymous":false},{"type":"event","name":"ApprovalForAll","inputs":[{"name":"owner","type":"address","indexed":true,"internalType":"address"},{"name":"operator","type":"address","indexed":true,"internalType":"address"},{"name":"approved","type":"bool","indexed":false,"internalType":"bool"}],"anonymous":false},{"type":"event","name":"BatchMetadataUpdate","inputs":[{"name":"_fromTokenId","type":"uint256","indexed":false,"internalType":"uint256"},{"name":"_toTokenId","type":"uint256","indexed":false,"internalType":"uint256"}],"anonymous":false},{"type":"event","name":"MetadataUpdate","inputs":[{"name":"_tokenId","type":"uint256","indexed":false,"internalType":"uint256"}],"anonymous":false},{"type":"event","name":"OwnershipTransferred","inputs":[{"name":"previousOwner","type":"address","indexed":true,"internalType":"address"},{"name":"newOwner","type":"address","indexed":true,"internalType":"address"}],"anonymous":false},{"type":"event","name":"Transfer","inputs":[{"name":"from","type":"address","indexed":true,"internalType":"address"},{"name":"to","type":"address","indexed":true,"internalType":"address"},{"name":"tokenId","type":"uint256","indexed":true,"internalType":"uint256"}],"anonymous":false},{"type":"error","name":"ERC721EnumerableForbiddenBatchMint","inputs":[]},{"type":"error","name":"ERC721IncorrectOwner","inputs":[{"name":"sender","type":"address","internalType":"address"},{"name":"tokenId","type":"uint256","internalType":"uint256"},{"name":"owner","type":"address","internalType":"address"}]},{"type":"error","name":"ERC721InsufficientApproval","inputs":[{"name":"operator","type":"address","internalType":"address"},{"name":"tokenId","type":"uint256","internalType":"uint256"}]},{"type":"error","name":"ERC721InvalidApprover","inputs":[{"name":"approver","type":"address","internalType":"address"}]},{"type":"error","name":"ERC721InvalidOperator","inputs":[{"name":"operator","type":"address","internalType":"address"}]},{"type":"error","name":"ERC721InvalidOwner","inputs":[{"name":"owner","type":"address","internalType":"address"}]},{"type":"error","name":"ERC721InvalidReceiver","inputs":[{"name":"receiver","type":"address","internalType":"address"}]},{"type":"error","name":"ERC721InvalidSender","inputs":[{"name":"sender","type":"address","internalType":"address"}]},{"type":"error","name":"ERC721NonexistentToken","inputs":[{"name":"tokenId","type":"uint256","internalType":"uint256"}]},{"type":"error","name":"ERC721OutOfBoundsIndex","inputs":[{"name":"owner","type":"address","internalType":"address"},{"name":"index","type":"uint256","internalType":"uint256"}]},{"type":"error","name":"OwnableInvalidOwner","inputs":[{"name":"owner","type":"address","internalType":"address"}]},{"type":"error","name":"OwnableUnauthorizedAccount","inputs":[{"name":"account","type":"address","internalType":"address"}]}],"bytecode":{"object":"0x60806040523480156200001157600080fd5b5060405162001c8d38038062001c8d8339810160408190526200003491620001b4565b3382826000620000458382620002af565b506001620000548282620002af565b5050506001600160a01b0381166200008657604051631e4fbdf760e01b81526000600482015260240160405180910390fd5b62000091816200009a565b5050506200037b565b600b80546001600160a01b038381166001600160a01b0319831681179093556040519116919082907f8be0079c531659141344cd1fd0a4f28419497f9722a3daafe3b4186f6b6457e090600090a35050565b634e487b7160e01b600052604160045260246000fd5b600082601f8301126200011457600080fd5b81516001600160401b0380821115620001315762000131620000ec565b604051601f8301601f19908116603f011681019082821181831017156200015c576200015c620000ec565b81604052838152602092508660208588010111156200017a57600080fd5b600091505b838210156200019e57858201830151818301840152908201906200017f565b6000602085830101528094505050505092915050565b60008060408385031215620001c857600080fd5b82516001600160401b0380821115620001e057600080fd5b620001ee8683870162000102565b935060208501519150808211156200020557600080fd5b50620002148582860162000102565b9150509250929050565b600181811c908216806200023357607f821691505b6020821081036200025457634e487b7160e01b600052602260045260246000fd5b50919050565b601f821115620002aa576000816000526020600020601f850160051c81016020861015620002855750805b601f850160051c820191505b81811015620002a65782815560010162000291565b5050505b505050565b81516001600160401b03811115620002cb57620002cb620000ec565b620002e381620002dc84546200021e565b846200025a565b602080601f8311600181146200031b5760008415620003025750858301515b600019600386901b1c1916600185901b178555620002a6565b600085815260208120601f198616915b828110156200034c578886015182559484019460019091019084016200032b565b50858210156200036b5787850151600019600388901b60f8161c191681555b5050505050600190811b01905550565b611902806200038b6000396000f3fe608060405234801561001057600080fd5b50600436106101425760003560e01c80636352211e116100b8578063a22cb4651161007c578063a22cb4651461028f578063b88d4fde146102a2578063c87b56dd146102b5578063e0df5b6f146102c8578063e985e9c5146102db578063f2fde38b146102ee57600080fd5b80636352211e1461024857806370a082311461025b578063715018a61461026e5780638da5cb5b1461027657806395d89b411461028757600080fd5b806318160ddd1161010a57806318160ddd146101d757806323b872dd146101e95780632f745c59146101fc57806342842e0e1461020f5780634f6ccce71461022257806354ba0f271461023557600080fd5b806301ffc9a71461014757806306fdde031461016f578063081812fc14610184578063095ea7b3146101af5780630e980602146101c4575b600080fd5b61015a61015536600461135c565b610301565b60405190151581526020015b60405180910390f35b610177610312565b60405161016691906113c9565b6101976101923660046113dc565b6103a4565b6040516001600160a01b039091168152602001610166565b6101c26101bd366004611411565b6103cd565b005b6101c26101d23660046114e7565b6103dc565b6009545b604051908152602001610166565b6101c26101f7366004611535565b61040a565b6101db61020a366004611411565b61049a565b6101c261021d366004611535565b6104ff565b6101db6102303660046113dc565b61051a565b6101c2610243366004611571565b610573565b6101976102563660046113dc565b610626565b6101db610269366004611571565b610631565b6101c2610679565b600b546001600160a01b0316610197565b61017761068d565b6101c261029d36600461158c565b61069c565b6101c26102b03660046115c8565b6106a7565b6101776102c33660046113dc565b6106be565b6101c26102d6366004611644565b6106c9565b61015a6102e9366004611679565b6106dd565b6101c26102fc366004611571565b61070b565b600061030c82610749565b92915050565b606060008054610321906116ac565b80601f016020809104026020016040519081016040528092919081815260200182805461034d906116ac565b801561039a5780601f1061036f5761010080835404028352916020019161039a565b820191906000526020600020905b81548152906001019060200180831161037d57829003601f168201915b5050505050905090565b60006103af8261076e565b506000828152600460205260409020546001600160a01b031661030c565b6103d88282336107a7565b5050565b6103e46107b4565b60006103ef60095490565b90506103fb83826107e1565b6104058183610846565b505050565b6001600160a01b03821661043957604051633250574960e11b8152600060048201526024015b60405180910390fd5b6000610446838333610896565b9050836001600160a01b0316816001600160a01b031614610494576040516364283d7b60e01b81526001600160a01b0380861660048301526024820184905282166044820152606401610430565b50505050565b60006104a583610631565b82106104d65760405163295f44f760e21b81526001600160a01b038416600482015260248101839052604401610430565b506001600160a01b03919091166000908152600760209081526040808320938352929052205490565b610405838383604051806020016040528060008152506106a7565b600061052560095490565b821061054e5760405163295f44f760e21b81526000600482015260248101839052604401610430565b60098281548110610561576105616116e6565b90600052602060002001549050919050565b61057b6107b4565b600061058660095490565b905061059282826107e1565b6103d881600c80546105a3906116ac565b80601f01602080910402602001604051908101604052809291908181526020018280546105cf906116ac565b801561061c5780601f106105f15761010080835404028352916020019161061c565b820191906000526020600020905b8154815290600101906020018083116105ff57829003601f168201915b5050505050610846565b600061030c8261076e565b60006001600160a01b03821661065d576040516322718ad960e21b815260006004820152602401610430565b506001600160a01b031660009081526003602052604090205490565b6106816107b4565b61068b60006108ab565b565b606060018054610321906116ac565b6103d83383836108fd565b6106b284848461040a565b6104948484848461099c565b606061030c82610ac5565b6106d16107b4565b600c6103d8828261174c565b6001600160a01b03918216600090815260056020908152604080832093909416825291909152205460ff1690565b6107136107b4565b6001600160a01b03811661073d57604051631e4fbdf760e01b815260006004820152602401610430565b610746816108ab565b50565b60006001600160e01b0319821663780e9d6360e01b148061030c575061030c82610bce565b6000818152600260205260408120546001600160a01b03168061030c57604051637e27328960e01b815260048101849052602401610430565b6104058383836001610bf3565b600b546001600160a01b0316331461068b5760405163118cdaa760e01b8152336004820152602401610430565b6001600160a01b03821661080b57604051633250574960e11b815260006004820152602401610430565b600061081983836000610896565b90506001600160a01b03811615610405576040516339e3563760e11b815260006004820152602401610430565b600082815260066020526040902061085e828261174c565b506040518281527ff8e1a15aba9398e019f0b49df1a4fde98ee17ae345cb5f6b5e2c27f5033e8ce79060200160405180910390a15050565b60006108a3848484610cf9565b949350505050565b600b80546001600160a01b038381166001600160a01b0319831681179093556040519116919082907f8be0079c531659141344cd1fd0a4f28419497f9722a3daafe3b4186f6b6457e090600090a35050565b6001600160a01b03821661092f57604051630b61174360e31b81526001600160a01b0383166004820152602401610430565b6001600160a01b03838116600081815260056020908152604080832094871680845294825291829020805460ff191686151590811790915591519182527f17307eab39ab6107e8899845ad3d59bd9653f200f220920489ca2b5937696c31910160405180910390a3505050565b6001600160a01b0383163b1561049457604051630a85bd0160e11b81526001600160a01b0384169063150b7a02906109de90339088908790879060040161180c565b6020604051808303816000875af1925050508015610a19575060408051601f3d908101601f19168201909252610a1691810190611849565b60015b610a82573d808015610a47576040519150601f19603f3d011682016040523d82523d6000602084013e610a4c565b606091505b508051600003610a7a57604051633250574960e11b81526001600160a01b0385166004820152602401610430565b805181602001fd5b6001600160e01b03198116630a85bd0160e11b14610abe57604051633250574960e11b81526001600160a01b0385166004820152602401610430565b5050505050565b6060610ad08261076e565b5060008281526006602052604081208054610aea906116ac565b80601f0160208091040260200160405190810160405280929190818152602001828054610b16906116ac565b8015610b635780601f10610b3857610100808354040283529160200191610b63565b820191906000526020600020905b815481529060010190602001808311610b4657829003601f168201915b505050505090506000610b8160408051602081019091526000815290565b90508051600003610b93575092915050565b815115610bc5578082604051602001610bad929190611866565b60405160208183030381529060405292505050919050565b6108a384610dc6565b60006001600160e01b03198216632483248360e11b148061030c575061030c82610e3b565b8080610c0757506001600160a01b03821615155b15610cc9576000610c178461076e565b90506001600160a01b03831615801590610c435750826001600160a01b0316816001600160a01b031614155b8015610c565750610c5481846106dd565b155b15610c7f5760405163a9fbf51f60e01b81526001600160a01b0384166004820152602401610430565b8115610cc75783856001600160a01b0316826001600160a01b03167f8c5be1e5ebec7d5bd14f71427d1e84f3dd0314c0f7b2291e5b200ac8c7c3b92560405160405180910390a45b505b5050600090815260046020526040902080546001600160a01b0319166001600160a01b0392909216919091179055565b600080610d07858585610e8b565b90506001600160a01b038116610d6457610d5f84600980546000838152600a60205260408120829055600182018355919091527f6e1540171b6c0c960b71a7020d9f60077f6af931a8bbf590da0223dacf75c7af0155565b610d87565b846001600160a01b0316816001600160a01b031614610d8757610d878185610f84565b6001600160a01b038516610da357610d9e84611015565b6108a3565b846001600160a01b0316816001600160a01b0316146108a3576108a385856110c4565b6060610dd18261076e565b506000610de960408051602081019091526000815290565b90506000815111610e095760405180602001604052806000815250610e34565b80610e1384611114565b604051602001610e24929190611866565b6040516020818303038152906040525b9392505050565b60006001600160e01b031982166380ac58cd60e01b1480610e6c57506001600160e01b03198216635b5e139f60e01b145b8061030c57506301ffc9a760e01b6001600160e01b031983161461030c565b6000828152600260205260408120546001600160a01b0390811690831615610eb857610eb88184866111a7565b6001600160a01b03811615610ef657610ed5600085600080610bf3565b6001600160a01b038116600090815260036020526040902080546000190190555b6001600160a01b03851615610f25576001600160a01b0385166000908152600360205260409020805460010190555b60008481526002602052604080822080546001600160a01b0319166001600160a01b0389811691821790925591518793918516917fddf252ad1be2c89b69c2b068fc378daa952ba7f163c4a11628f55a4df523b3ef91a4949350505050565b6000610f8f83610631565b600083815260086020526040902054909150808214610fe2576001600160a01b03841660009081526007602090815260408083208584528252808320548484528184208190558352600890915290208190555b5060009182526008602090815260408084208490556001600160a01b039094168352600781528383209183525290812055565b60095460009061102790600190611895565b6000838152600a60205260408120546009805493945090928490811061104f5761104f6116e6565b906000526020600020015490508060098381548110611070576110706116e6565b6000918252602080832090910192909255828152600a909152604080822084905585825281205560098054806110a8576110a86118b6565b6001900381819060005260206000200160009055905550505050565b600060016110d184610631565b6110db9190611895565b6001600160a01b039093166000908152600760209081526040808320868452825280832085905593825260089052919091209190915550565b606060006111218361120b565b600101905060008167ffffffffffffffff8111156111415761114161143b565b6040519080825280601f01601f19166020018201604052801561116b576020820181803683370190505b5090508181016020015b600019016f181899199a1a9b1b9c1cb0b131b232b360811b600a86061a8153600a850494508461117557509392505050565b6111b28383836112e3565b610405576001600160a01b0383166111e057604051637e27328960e01b815260048101829052602401610430565b60405163177e802f60e01b81526001600160a01b038316600482015260248101829052604401610430565b60008072184f03e93ff9f4daa797ed6e38ed64bf6a1f0160401b831061124a5772184f03e93ff9f4daa797ed6e38ed64bf6a1f0160401b830492506040015b6d04ee2d6d415b85acef81000000008310611276576d04ee2d6d415b85acef8100000000830492506020015b662386f26fc10000831061129457662386f26fc10000830492506010015b6305f5e10083106112ac576305f5e100830492506008015b61271083106112c057612710830492506004015b606483106112d2576064830492506002015b600a831061030c5760010192915050565b60006001600160a01b038316158015906108a35750826001600160a01b0316846001600160a01b0316148061131d575061131d84846106dd565b806108a35750506000908152600460205260409020546001600160a01b03908116911614919050565b6001600160e01b03198116811461074657600080fd5b60006020828403121561136e57600080fd5b8135610e3481611346565b60005b8381101561139457818101518382015260200161137c565b50506000910152565b600081518084526113b5816020860160208601611379565b601f01601f19169290920160200192915050565b602081526000610e34602083018461139d565b6000602082840312156113ee57600080fd5b5035919050565b80356001600160a01b038116811461140c57600080fd5b919050565b6000806040838503121561142457600080fd5b61142d836113f5565b946020939093013593505050565b634e487b7160e01b600052604160045260246000fd5b600067ffffffffffffffff8084111561146c5761146c61143b565b604051601f8501601f19908116603f011681019082821181831017156114945761149461143b565b816040528093508581528686860111156114ad57600080fd5b858560208301376000602087830101525050509392505050565b600082601f8301126114d857600080fd5b610e3483833560208501611451565b600080604083850312156114fa57600080fd5b611503836113f5565b9150602083013567ffffffffffffffff81111561151f57600080fd5b61152b858286016114c7565b9150509250929050565b60008060006060848603121561154a57600080fd5b611553846113f5565b9250611561602085016113f5565b9150604084013590509250925092565b60006020828403121561158357600080fd5b610e34826113f5565b6000806040838503121561159f57600080fd5b6115a8836113f5565b9150602083013580151581146115bd57600080fd5b809150509250929050565b600080600080608085870312156115de57600080fd5b6115e7856113f5565b93506115f5602086016113f5565b925060408501359150606085013567ffffffffffffffff81111561161857600080fd5b8501601f8101871361162957600080fd5b61163887823560208401611451565b91505092959194509250565b60006020828403121561165657600080fd5b813567ffffffffffffffff81111561166d57600080fd5b6108a3848285016114c7565b6000806040838503121561168c57600080fd5b611695836113f5565b91506116a3602084016113f5565b90509250929050565b600181811c908216806116c057607f821691505b6020821081036116e057634e487b7160e01b600052602260045260246000fd5b50919050565b634e487b7160e01b600052603260045260246000fd5b601f821115610405576000816000526020600020601f850160051c810160208610156117255750805b601f850160051c820191505b8181101561174457828155600101611731565b505050505050565b815167ffffffffffffffff8111156117665761176661143b565b61177a8161177484546116ac565b846116fc565b602080601f8311600181146117af57600084156117975750858301515b600019600386901b1c1916600185901b178555611744565b600085815260208120601f198616915b828110156117de578886015182559484019460019091019084016117bf565b50858210156117fc5787850151600019600388901b60f8161c191681555b5050505050600190811b01905550565b6001600160a01b038581168252841660208201526040810183905260806060820181905260009061183f9083018461139d565b9695505050505050565b60006020828403121561185b57600080fd5b8151610e3481611346565b60008351611878818460208801611379565b83519083019061188c818360208801611379565b01949350505050565b8181038181111561030c57634e487b7160e01b600052601160045260246000fd5b634e487b7160e01b600052603160045260246000fdfea264697066735822122074f12cbd0b555c86a929ac2f909f367e99c0cb8fb515c9ac2a1c1a9f9350a41064736f6c63430008160033","linkReferences":{}},"methodIdentifiers":{"approve(address,uint256)":"095ea7b3","balanceOf(address)":"70a08231","getApproved(uint256)":"081812fc","isApprovedForAll(address,address)":"e985e9c5","mintNFT(address)":"54ba0f27","mintWithURI(address,string)":"0e980602","name()":"06fdde03","owner()":"8da5cb5b","ownerOf(uint256)":"6352211e","renounceOwnership()":"715018a6","safeTransferFrom(address,address,uint256)":"42842e0e","safeTransferFrom(address,address,uint256,bytes)":"b88d4fde","setApprovalForAll(address,bool)":"a22cb465","setTokenURI(string)":"e0df5b6f","supportsInterface(bytes4)":"01ffc9a7","symbol()":"95d89b41","tokenByIndex(uint256)":"4f6ccce7","tokenOfOwnerByIndex(address,uint256)":"2f745c59","tokenURI(uint256)":"c87b56dd","totalSupply()":"18160ddd","transferFrom(address,address,uint256)":"23b872dd","transferOwnership(address)":"f2fde38b"},"id":22}