{"abi":[{"type":"constructor","inputs":[],"stateMutability":"nonpayable"},{"type":"function","name":"courseCount","inputs":[],"outputs":[{"name":"","type":"uint256","internalType":"uint256"}],"stateMutability":"view"},{"type":"function","name":"courses","inputs":[{"name":"","type":"uint256","internalType":"uint256"}],"outputs":[{"name":"id","type":"uint256","internalType":"uint256"},{"name":"title","type":"string","internalType":"string"},{"name":"description","type":"string","internalType":"string"},{"name":"instructor","type":"address","internalType":"address payable"},{"name":"price","type":"uint256","internalType":"uint256"},{"name":"isAvailable","type":"bool","internalType":"bool"}],"stateMutability":"view"},{"type":"function","name":"createCourse","inputs":[{"name":"_title","type":"string","internalType":"string"},{"name":"_description","type":"string","internalType":"string"},{"name":"_price","type":"uint256","internalType":"uint256"}],"outputs":[],"stateMutability":"nonpayable"},{"type":"function","name":"enroll","inputs":[{"name":"_user","type":"address","internalType":"address"},{"name":"_courseId","type":"uint256","internalType":"uint256"}],"outputs":[],"stateMutability":"payable"},{"type":"function","name":"getCourse","inputs":[{"name":"_courseId","type":"uint256","internalType":"uint256"}],"outputs":[{"name":"id","type":"uint256","internalType":"uint256"},{"name":"title","type":"string","internalType":"string"},{"name":"description","type":"string","internalType":"string"},{"name":"instructor","type":"address","internalType":"address"},{"name":"price","type":"uint256","internalType":"uint256"},{"name":"isAvailable","type":"bool","internalType":"bool"}],"stateMutability":"view"},{"type":"function","name":"owner","inputs":[],"outputs":[{"name":"","type":"address","internalType":"address"}],"stateMutability":"view"},{"type":"function","name":"renounceOwnership","inputs":[],"outputs":[],"stateMutability":"nonpayable"},{"type":"function","name":"transferOwnership","inputs":[{"name":"newOwner","type":"address","internalType":"address"}],"outputs":[],"stateMutability":"nonpayable"},{"type":"function","name":"withdraw","inputs":[],"outputs":[],"stateMutability":"nonpayable"},{"type":"event","name":"CourseCreated","inputs":[{"name":"id","type":"uint256","indexed":false,"internalType":"uint256"},{"name":"title","type":"string","indexed":false,"internalType":"string"},{"name":"instructor","type":"address","indexed":false,"internalType":"address"},{"name":"price","type":"uint256","indexed":false,"internalType":"uint256"}],"anonymous":false},{"type":"event","name":"CourseEnrolled","inputs":[{"name":"id","type":"uint256","indexed":false,"internalType":"uint256"},{"name":"student","type":"address","indexed":false,"internalType":"address"}],"anonymous":false},{"type":"event","name":"OwnershipTransferred","inputs":[{"name":"previousOwner","type":"address","indexed":true,"internalType":"address"},{"name":"newOwner","type":"address","indexed":true,"internalType":"address"}],"anonymous":false},{"type":"error","name":"OwnableInvalidOwner","inputs":[{"name":"owner","type":"address","internalType":"address"}]},{"type":"error","name":"OwnableUnauthorizedAccount","inputs":[{"name":"account","type":"address","internalType":"address"}]}],"bytecode":{"object":"0x608060405234801561001057600080fd5b50338061003757604051631e4fbdf760e01b81526000600482015260240160405180910390fd5b61004081610046565b50610096565b600080546001600160a01b038381166001600160a01b0319831681178455604051919092169283917f8be0079c531659141344cd1fd0a4f28419497f9722a3daafe3b4186f6b6457e09190a35050565b610c74806100a56000396000f3fe6080604052600436106100865760003560e01c8063715018a611610059578063715018a6146101145780638da5cb5b1461012957806396f979d214610151578063a4adb24b14610171578063f2fde38b1461019157600080fd5b80630b91e28d1461008b5780633ccfd60b146100c65780636111ca21146100dd57806366055159146100f0575b600080fd5b34801561009757600080fd5b506100ab6100a636600461086b565b6101b1565b6040516100bd969594939291906108ca565b60405180910390f35b3480156100d257600080fd5b506100db61032c565b005b6100db6100eb36600461093b565b61037d565b3480156100fc57600080fd5b5061010660025481565b6040519081526020016100bd565b34801561012057600080fd5b506100db610587565b34801561013557600080fd5b506000546040516001600160a01b0390911681526020016100bd565b34801561015d57600080fd5b506100ab61016c36600461086b565b61059b565b34801561017d57600080fd5b506100db61018c366004610a08565b6106ee565b34801561019d57600080fd5b506100db6101ac366004610a75565b6107b0565b6000818152600160208190526040822080546003820154600483015460058401549484018054606096879689968796879692959194919360028701936001600160a01b039092169260ff90911690859061020a90610a97565b80601f016020809104026020016040519081016040528092919081815260200182805461023690610a97565b80156102835780601f1061025857610100808354040283529160200191610283565b820191906000526020600020905b81548152906001019060200180831161026657829003601f168201915b5050505050945083805461029690610a97565b80601f01602080910402602001604051908101604052809291908181526020018280546102c290610a97565b801561030f5780601f106102e45761010080835404028352916020019161030f565b820191906000526020600020905b8154815290600101906020018083116102f257829003601f168201915b505050505093509650965096509650965096505091939550919395565b6103346107ee565b600080546001600160a01b03166040519091506001600160a01b038216904780156108fc02916000818181858888f19350505050158015610379573d6000803e3d6000fd5b5050565b60008111801561038f57506002548111155b6103d45760405162461bcd60e51b8152602060048201526011602482015270125b9d985b1a590818dbdd5c9cd9481251607a1b60448201526064015b60405180910390fd5b6000818152600160205260409020600581015460ff166104365760405162461bcd60e51b815260206004820152601760248201527f436f75727365206973206e6f7420617661696c61626c6500000000000000000060448201526064016103cb565b6001600160a01b038316600090815260068201602052604090205460ff16156104945760405162461bcd60e51b815260206004820152601060248201526f105b1c9958591e48195b9c9bdb1b195960821b60448201526064016103cb565b806004015434146104df5760405162461bcd60e51b8152602060048201526015602482015274125b98dbdc9c9958dd08185b5bdd5b9d081cd95b9d605a1b60448201526064016103cb565b60038101546040516001600160a01b03909116903480156108fc02916000818181858888f1935050505015801561051a573d6000803e3d6000fd5b5033600081815260068301602052604090819020805460ff19166001179055517fd1a80c70750f3ae815515ec08d02c6202510aa13797609fe270e902cdfd99f039161057a918591909182526001600160a01b0316602082015260400190565b60405180910390a1505050565b61058f6107ee565b610599600061081b565b565b6001602081905260009182526040909120805491810180546105bc90610a97565b80601f01602080910402602001604051908101604052809291908181526020018280546105e890610a97565b80156106355780601f1061060a57610100808354040283529160200191610635565b820191906000526020600020905b81548152906001019060200180831161061857829003601f168201915b50505050509080600201805461064a90610a97565b80601f016020809104026020016040519081016040528092919081815260200182805461067690610a97565b80156106c35780601f10610698576101008083540402835291602001916106c3565b820191906000526020600020905b8154815290600101906020018083116106a657829003601f168201915b505050506003830154600484015460059094015492936001600160a01b039091169290915060ff1686565b6106f66107ee565b6002805490600061070683610ad1565b90915550506002546000818152600160208190526040909120918255810161072e8582610b49565b506002810161073d8482610b49565b506003810180546001600160a01b031916339081179091556004820183905560058201805460ff191660011790556002546040517f48ecb80c764507d9b513e5fbdba76e8b8177d246e4314b2718204d1027f99673926107a292918891908790610c09565b60405180910390a150505050565b6107b86107ee565b6001600160a01b0381166107e257604051631e4fbdf760e01b8152600060048201526024016103cb565b6107eb8161081b565b50565b6000546001600160a01b031633146105995760405163118cdaa760e01b81523360048201526024016103cb565b600080546001600160a01b038381166001600160a01b0319831681178455604051919092169283917f8be0079c531659141344cd1fd0a4f28419497f9722a3daafe3b4186f6b6457e09190a35050565b60006020828403121561087d57600080fd5b5035919050565b6000815180845260005b818110156108aa5760208185018101518683018201520161088e565b506000602082860101526020601f19601f83011685010191505092915050565b86815260c0602082015260006108e360c0830188610884565b82810360408401526108f58188610884565b6001600160a01b0396909616606084015250506080810192909252151560a0909101529392505050565b80356001600160a01b038116811461093657600080fd5b919050565b6000806040838503121561094e57600080fd5b6109578361091f565b946020939093013593505050565b634e487b7160e01b600052604160045260246000fd5b600082601f83011261098c57600080fd5b813567ffffffffffffffff808211156109a7576109a7610965565b604051601f8301601f19908116603f011681019082821181831017156109cf576109cf610965565b816040528381528660208588010111156109e857600080fd5b836020870160208301376000602085830101528094505050505092915050565b600080600060608486031215610a1d57600080fd5b833567ffffffffffffffff80821115610a3557600080fd5b610a418783880161097b565b94506020860135915080821115610a5757600080fd5b50610a648682870161097b565b925050604084013590509250925092565b600060208284031215610a8757600080fd5b610a908261091f565b9392505050565b600181811c90821680610aab57607f821691505b602082108103610acb57634e487b7160e01b600052602260045260246000fd5b50919050565b600060018201610af157634e487b7160e01b600052601160045260246000fd5b5060010190565b601f821115610b44576000816000526020600020601f850160051c81016020861015610b215750805b601f850160051c820191505b81811015610b4057828155600101610b2d565b5050505b505050565b815167ffffffffffffffff811115610b6357610b63610965565b610b7781610b718454610a97565b84610af8565b602080601f831160018114610bac5760008415610b945750858301515b600019600386901b1c1916600185901b178555610b40565b600085815260208120601f198616915b82811015610bdb57888601518255948401946001909101908401610bbc565b5085821015610bf95787850151600019600388901b60f8161c191681555b5050505050600190811b01905550565b848152608060208201526000610c226080830186610884565b6001600160a01b0394909416604083015250606001529291505056fea264697066735822122013326ccc3991f4f4a62a67e3312690fb7e11b81840ed79bcfc08c74d6d572a5b64736f6c63430008160033","linkReferences":{}},"methodIdentifiers":{"courseCount()":"66055159","courses(uint256)":"96f979d2","createCourse(string,string,uint256)":"a4adb24b","enroll(address,uint256)":"6111ca21","getCourse(uint256)":"0b91e28d","owner()":"8da5cb5b","renounceOwnership()":"715018a6","transferOwnership(address)":"f2fde38b","withdraw()":"3ccfd60b"},"id":15}