{"abi":[{"type":"constructor","inputs":[{"name":"_nftContract","type":"address","internalType":"address"},{"name":"_rewardToken","type":"address","internalType":"address"},{"name":"_sweatsync","type":"address","internalType":"address"}],"stateMutability":"nonpayable"},{"type":"function","name":"changeSweatSyncAddres","inputs":[{"name":"newAddr","type":"address","internalType":"address"}],"outputs":[],"stateMutability":"nonpayable"},{"type":"function","name":"dailyCheckIn","inputs":[{"name":"_user","type":"address","internalType":"address"},{"name":"todaysCaloriesBurnt","type":"uint256","internalType":"uint256"},{"name":"totalStepsToday","type":"uint256","internalType":"uint256"}],"outputs":[],"stateMutability":"nonpayable"},{"type":"function","name":"nftContract","inputs":[],"outputs":[{"name":"","type":"address","internalType":"contract IERC721"}],"stateMutability":"view"},{"type":"function","name":"owner","inputs":[],"outputs":[{"name":"","type":"address","internalType":"address"}],"stateMutability":"view"},{"type":"function","name":"renounceOwnership","inputs":[],"outputs":[],"stateMutability":"nonpayable"},{"type":"function","name":"rewardToken","inputs":[],"outputs":[{"name":"","type":"address","internalType":"contract IERC20"}],"stateMutability":"view"},{"type":"function","name":"s_nftContract","inputs":[],"outputs":[{"name":"","type":"address","internalType":"address"}],"stateMutability":"view"},{"type":"function","name":"s_sweatSyncContract","inputs":[],"outputs":[{"name":"","type":"address","internalType":"address"}],"stateMutability":"view"},{"type":"function","name":"s_sweatSyncHandler","inputs":[],"outputs":[{"name":"","type":"address","internalType":"address"}],"stateMutability":"view"},{"type":"function","name":"stakeNFTs","inputs":[{"name":"_goal","type":"uint256","internalType":"uint256"},{"name":"_tokenId","type":"uint256","internalType":"uint256"},{"name":"_dailyCalories","type":"uint256","internalType":"uint256"},{"name":"_stepsDaily","type":"uint256","internalType":"uint256"},{"name":"_nftAddress","type":"address","internalType":"address"}],"outputs":[],"stateMutability":"nonpayable"},{"type":"function","name":"stakings","inputs":[{"name":"","type":"address","internalType":"address"}],"outputs":[{"name":"goal","type":"uint256","internalType":"uint256"},{"name":"start_time","type":"uint256","internalType":"uint256"},{"name":"lastUpadated","type":"uint256","internalType":"uint256"},{"name":"totalCaloriesLeft","type":"uint256","internalType":"uint256"},{"name":"totalStepsTaken","type":"uint256","internalType":"uint256"},{"name":"tokenId","type":"uint256","internalType":"uint256"},{"name":"goalActive","type":"bool","internalType":"bool"},{"name":"_nftTokenAddress","type":"address","internalType":"address"}],"stateMutability":"view"},{"type":"function","name":"transferOwnership","inputs":[{"name":"newOwner","type":"address","internalType":"address"}],"outputs":[],"stateMutability":"nonpayable"},{"type":"function","name":"unStake","inputs":[],"outputs":[],"stateMutability":"nonpayable"},{"type":"function","name":"withdraw","inputs":[{"name":"_user","type":"address","internalType":"address"}],"outputs":[],"stateMutability":"nonpayable"},{"type":"event","name":"DailyCheckin","inputs":[{"name":"user","type":"address","indexed":true,"internalType":"address"},{"name":"_days","type":"uint256","indexed":true,"internalType":"uint256"}],"anonymous":false},{"type":"event","name":"OwnershipTransferred","inputs":[{"name":"previousOwner","type":"address","indexed":true,"internalType":"address"},{"name":"newOwner","type":"address","indexed":true,"internalType":"address"}],"anonymous":false},{"type":"event","name":"RewardClaimed","inputs":[{"name":"user","type":"address","indexed":true,"internalType":"address"},{"name":"amount","type":"uint256","indexed":true,"internalType":"uint256"}],"anonymous":false},{"type":"event","name":"RewardNFTClaimed","inputs":[{"name":"user","type":"address","indexed":false,"internalType":"address"},{"name":"tokenId","type":"uint256","indexed":false,"internalType":"uint256"}],"anonymous":false},{"type":"event","name":"Staked","inputs":[{"name":"user","type":"address","indexed":true,"internalType":"address"},{"name":"goal","type":"uint256","indexed":true,"internalType":"uint256"},{"name":"tokenId","type":"uint256","indexed":true,"internalType":"uint256"}],"anonymous":false},{"type":"event","name":"SweatSyncAddressChanged","inputs":[{"name":"previousSweatSyncAddress","type":"address","indexed":true,"internalType":"address"},{"name":"newSweatSyncAddress","type":"address","indexed":true,"internalType":"address"}],"anonymous":false},{"type":"event","name":"UnStaked","inputs":[{"name":"user","type":"address","indexed":true,"internalType":"address"},{"name":"tokenId","type":"uint256","indexed":true,"internalType":"uint256"}],"anonymous":false},{"type":"event","name":"WithdrawnByOwner","inputs":[{"name":"user","type":"address","indexed":true,"internalType":"address"},{"name":"tokenId","type":"uint256","indexed":true,"internalType":"uint256"}],"anonymous":false},{"type":"error","name":"OwnableInvalidOwner","inputs":[{"name":"owner","type":"address","internalType":"address"}]},{"type":"error","name":"OwnableUnauthorizedAccount","inputs":[{"name":"account","type":"address","internalType":"address"}]}],"bytecode":{"object":"0x60806040523480156200001157600080fd5b506040516200127f3803806200127f833981016040819052620000349162000117565b33806200005b57604051631e4fbdf760e01b81526000600482015260240160405180910390fd5b6200006681620000aa565b50600280546001600160a01b039485166001600160a01b03199182161790915560038054938516938216939093179092556001805491909316911617905562000161565b600080546001600160a01b038381166001600160a01b0319831681178455604051919092169283917f8be0079c531659141344cd1fd0a4f28419497f9722a3daafe3b4186f6b6457e09190a35050565b80516001600160a01b03811681146200011257600080fd5b919050565b6000806000606084860312156200012d57600080fd5b6200013884620000fa565b92506200014860208501620000fa565b91506200015860408501620000fa565b90509250925092565b61110e80620001716000396000f3fe608060405234801561001057600080fd5b50600436106100ea5760003560e01c8063d56d229d1161008c578063ecb01eb811610066578063ecb01eb814610245578063f15f918514610258578063f2fde38b1461026b578063f7c618c11461027e57600080fd5b8063d56d229d1461017b578063dc6e13e11461018e578063dd2933991461023257600080fd5b8063715018a6116100c8578063715018a61461014757806373cf575a1461014f5780638da5cb5b14610157578063c1020c1d1461016857600080fd5b80630a348f77146100ef57806351cff8d91461011f5780636994e9de14610134575b600080fd5b600154610102906001600160a01b031681565b6040516001600160a01b0390911681526020015b60405180910390f35b61013261012d366004610f4f565b610291565b005b600254610102906001600160a01b031681565b6101326103fb565b61013261040f565b6000546001600160a01b0316610102565b610132610176366004610f71565b61069a565b600654610102906001600160a01b031681565b6101ec61019c366004610f4f565b6004602081905260009182526040909120805460018201546002830154600384015494840154600585015460069095015493959294919390919060ff81169061010090046001600160a01b031688565b604080519889526020890197909752958701949094526060860192909252608085015260a0840152151560c08301526001600160a01b031660e082015261010001610116565b610132610240366004610f4f565b610987565b610132610253366004610fa4565b6109eb565b600354610102906001600160a01b031681565b610132610279366004610f4f565b610cd4565b600554610102906001600160a01b031681565b610299610d12565b6001600160a01b038116600090815260046020526040902060060154819060ff1615156001146102e45760405162461bcd60e51b81526004016102db90610fed565b60405180910390fd5b6001600160a01b03828116600081815260046020819052604080832060050154338452928190206006015490516323b872dd60e01b8152309281019290925260248201939093526044810182905290926101009092049091169081906323b872dd90606401600060405180830381600087803b15801561036357600080fd5b505af1158015610377573d6000803e3d6000fd5b5050506001600160a01b038516600081815260046020819052604080832083815560018101849055600281018490556003810184905591820183905560058201839055600690910180546001600160a81b0319169055518593507f642e4f8e7c1db1de5ff1b3cd39c7d8c0016441876d6f5115ae31f114d1bb7b029190a350505050565b610403610d12565b61040d6000610d3f565b565b3360008181526004602052604090206006015460ff1615156001146104465760405162461bcd60e51b81526004016102db90610fed565b33600090815260046020526040902054156104b75760405162461bcd60e51b815260206004820152602b60248201527f596f752063616e277420756e7374616b65206e6f772c20636f6d706c6574652060448201526a796f75722073747265616b60a81b60648201526084016102db565b33600090815260046020526040902060030154156105235760405162461bcd60e51b815260206004820152602360248201527f596f75206e65656420746f206275726e20736f6d65206d6f72652063616c6f7260448201526269657360e81b60648201526084016102db565b3360009081526004602081905260409091200154156105845760405162461bcd60e51b815260206004820181905260248201527f596f75206e65656420746f2074616b6520736f6d65206d6f726520737465707360448201526064016102db565b33600081815260046020819052604091829020600581015460069091015492516323b872dd60e01b815230928101929092526024820193909352604481018390526101009091046001600160a01b03169081906323b872dd90606401600060405180830381600087803b1580156105fa57600080fd5b505af115801561060e573d6000803e3d6000fd5b5050505061061b33610d8f565b61062433610e4e565b33600081815260046020819052604080832083815560018101849055600281018490556003810184905591820183905560058201839055600690910180546001600160a81b0319169055518492917f79d3df6837cc49ff0e09fd3258e6e45594e0703445bb06825e9d75156eaee8f091a3505050565b6001546001600160a01b031633146106ed5760405162461bcd60e51b8152602060048201526016602482015275165bdd48185c99481b9bdd08185d5d1a1bdc9a5e995960521b60448201526064016102db565b6001600160a01b038316600090815260046020526040902060060154839060ff16151560011461072f5760405162461bcd60e51b81526004016102db90610fed565b6001600160a01b038416600090815260046020526040902060020154620151809061075b90429061103a565b10156107bd5760405162461bcd60e51b815260206004820152602b60248201527f596f752063616e206f6e6c792063616c6c20746869732066756e6374696f6e2060448201526a616674657220612044617960a81b60648201526084016102db565b6001600160a01b03841660009081526004602052604090205415610805576001600160a01b03841660009081526004602052604081208054916107ff8361104d565b91905055505b6001600160a01b03841660009081526004602052604090206003015483101561085e576001600160a01b0384166000908152600460205260408120600301805485929061085390849061103a565b9091555061089e9050565b6001600160a01b03841660009081526004602052604090206003015483111561089e576001600160a01b0384166000908152600460205260408120600301555b6001600160a01b038416600090815260046020819052604090912001548210156108f8576001600160a01b038416600090815260046020819052604082200180548492906108ed90849061103a565b909155506109399050565b6001600160a01b03841660009081526004602081905260409091200154831115610939576001600160a01b0384166000908152600460208190526040822001555b6001600160a01b0384166000818152600460205260408082204260028201555490519092917f336d5545aeadf554b6958cebd8da59d4cc193488fe3553008e3adb4e3fcaeca891a350505050565b61098f610d12565b6001546040516001600160a01b038084169216907f4b4f5dfa69a903fb0b3219412c3da1623d1c2de5b60b1061fab58dbc7d739db490600090a3600180546001600160a01b0319166001600160a01b0392909216919091179055565b6040516370a0823160e01b81523360048201526000906001600160a01b038316906370a08231906024016020604051808303816000875af1158015610a34573d6000803e3d6000fd5b505050506040513d601f19601f82011682018060405250810190610a589190611064565b11610aa55760405162461bcd60e51b815260206004820152601860248201527f596f7520646f206e6f74206f776e20616e79204e4654732e000000000000000060448201526064016102db565b3360009081526004602052604090206006015460ff1615610b085760405162461bcd60e51b815260206004820152601b60248201527f596f75206861766520616e20616374697665207374616b696e672e000000000060448201526064016102db565b6000610b14868561107d565b90506000610b22878561107d565b9050604051806101000160405280888152602001428152602001428152602001838152602001828152602001878152602001600115158152602001846001600160a01b031681525060046000336001600160a01b03166001600160a01b03168152602001908152602001600020600082015181600001556020820151816001015560408201518160020155606082015181600301556080820151816004015560a0820151816005015560c08201518160060160006101000a81548160ff02191690831515021790555060e08201518160060160016101000a8154816001600160a01b0302191690836001600160a01b03160217905550905050826001600160a01b03166323b872dd3330896040518463ffffffff1660e01b8152600401610c6a939291906001600160a01b039384168152919092166020820152604081019190915260600190565b600060405180830381600087803b158015610c8457600080fd5b505af1158015610c98573d6000803e3d6000fd5b505060405188925089915033907f1449c6dd7851abc30abf37f57715f492010519147cc2652fbc38202c18a6ee9090600090a450505050505050565b610cdc610d12565b6001600160a01b038116610d0657604051631e4fbdf760e01b8152600060048201526024016102db565b610d0f81610d3f565b50565b6000546001600160a01b0316331461040d5760405163118cdaa760e01b81523360048201526024016102db565b600080546001600160a01b038381166001600160a01b0319831681178455604051919092169283917f8be0079c531659141344cd1fd0a4f28419497f9722a3daafe3b4186f6b6457e09190a35050565b6000610d9a82610f08565b6003546040516340c10f1960e01b81526001600160a01b038581166004830152602482018490529293509116906340c10f19906044016020604051808303816000875af1158015610def573d6000803e3d6000fd5b505050506040513d601f19601f82011682018060405250810190610e139190611094565b5060405181906001600160a01b038416907f106f923f993c2149d49b4255ff723acafa1f2d94393f561d3eda32ae348f724190600090a35050565b6002546040516354ba0f2760e01b81526001600160a01b03838116600483015260009216906354ba0f27906024016020604051808303816000875af1158015610e9b573d6000803e3d6000fd5b505050506040513d601f19601f82011682018060405250810190610ebf9190611064565b604080516001600160a01b0385168152602081018390529192507fbfc8febdeb25ba832452d4678e8b7255b33fddf7317ec90b0c251f2c98355f72910160405180910390a15050565b6001600160a01b038116600090815260046020526040812054610f2d906002906110b6565b92915050565b80356001600160a01b0381168114610f4a57600080fd5b919050565b600060208284031215610f6157600080fd5b610f6a82610f33565b9392505050565b600080600060608486031215610f8657600080fd5b610f8f84610f33565b95602085013595506040909401359392505050565b600080600080600060a08688031215610fbc57600080fd5b85359450602086013593506040860135925060608601359150610fe160808701610f33565b90509295509295909350565b6020808252601e908201527f596f7520646f206e6f74206861766520616e2061637469766520676f616c0000604082015260600190565b634e487b7160e01b600052601160045260246000fd5b81810381811115610f2d57610f2d611024565b60008161105c5761105c611024565b506000190190565b60006020828403121561107657600080fd5b5051919050565b8082028115828204841417610f2d57610f2d611024565b6000602082840312156110a657600080fd5b81518015158114610f6a57600080fd5b6000826110d357634e487b7160e01b600052601260045260246000fd5b50049056fea26469706673582212202231db507a30fe459adee335338a6c00aace349cba74a7c0f9d134cf3f55dbd464736f6c63430008160033","linkReferences":{}},"methodIdentifiers":{"changeSweatSyncAddres(address)":"dd293399","dailyCheckIn(address,uint256,uint256)":"c1020c1d","nftContract()":"d56d229d","owner()":"8da5cb5b","renounceOwnership()":"715018a6","rewardToken()":"f7c618c1","s_nftContract()":"6994e9de","s_sweatSyncContract()":"f15f9185","s_sweatSyncHandler()":"0a348f77","stakeNFTs(uint256,uint256,uint256,uint256,address)":"ecb01eb8","stakings(address)":"dc6e13e1","transferOwnership(address)":"f2fde38b","unStake()":"73cf575a","withdraw(address)":"51cff8d9"},"id":43}