{"abi":[{"type":"constructor","inputs":[{"name":"_name","type":"string","internalType":"string"},{"name":"_symbol","type":"string","internalType":"string"},{"name":"courseAddress","type":"address","internalType":"address"}],"stateMutability":"nonpayable"},{"type":"function","name":"approve","inputs":[{"name":"to","type":"address","internalType":"address"},{"name":"tokenId","type":"uint256","internalType":"uint256"}],"outputs":[],"stateMutability":"nonpayable"},{"type":"function","name":"balanceOf","inputs":[{"name":"owner","type":"address","internalType":"address"}],"outputs":[{"name":"","type":"uint256","internalType":"uint256"}],"stateMutability":"view"},{"type":"function","name":"buyNFTAndUpdateData","inputs":[{"name":"tokenId","type":"uint256","internalType":"uint256"}],"outputs":[],"stateMutability":"payable"},{"type":"function","name":"getApproved","inputs":[{"name":"tokenId","type":"uint256","internalType":"uint256"}],"outputs":[{"name":"","type":"address","internalType":"address"}],"stateMutability":"view"},{"type":"function","name":"getUserData","inputs":[{"name":"user","type":"address","internalType":"address"}],"outputs":[{"name":"","type":"tuple","internalType":"struct NFTMarketplace.UserData","components":[{"name":"ownedNFTs","type":"uint256[]","internalType":"uint256[]"},{"name":"achievements","type":"uint256[]","internalType":"uint256[]"},{"name":"purchasedCourses","type":"uint256[]","internalType":"uint256[]"}]}],"stateMutability":"view"},{"type":"function","name":"goals","inputs":[{"name":"","type":"uint256","internalType":"uint256"}],"outputs":[{"name":"","type":"string","internalType":"string"}],"stateMutability":"view"},{"type":"function","name":"isApprovedForAll","inputs":[{"name":"owner","type":"address","internalType":"address"},{"name":"operator","type":"address","internalType":"address"}],"outputs":[{"name":"","type":"bool","internalType":"bool"}],"stateMutability":"view"},{"type":"function","name":"mintNFT","inputs":[{"name":"to","type":"address","internalType":"address"},{"name":"tokenId","type":"uint256","internalType":"uint256"},{"name":"goalId","type":"uint256","internalType":"uint256"},{"name":"startDate","type":"uint256","internalType":"uint256"},{"name":"endDate","type":"uint256","internalType":"uint256"}],"outputs":[],"stateMutability":"nonpayable"},{"type":"function","name":"name","inputs":[],"outputs":[{"name":"","type":"string","internalType":"string"}],"stateMutability":"view"},{"type":"function","name":"nftDetails","inputs":[{"name":"","type":"uint256","internalType":"uint256"}],"outputs":[{"name":"goalId","type":"uint256","internalType":"uint256"},{"name":"startDate","type":"uint256","internalType":"uint256"},{"name":"endDate","type":"uint256","internalType":"uint256"},{"name":"goalCompleted","type":"bool","internalType":"bool"}],"stateMutability":"view"},{"type":"function","name":"owner","inputs":[],"outputs":[{"name":"","type":"address","internalType":"address"}],"stateMutability":"view"},{"type":"function","name":"ownerOf","inputs":[{"name":"tokenId","type":"uint256","internalType":"uint256"}],"outputs":[{"name":"","type":"address","internalType":"address"}],"stateMutability":"view"},{"type":"function","name":"purchaseCourseAndUpdateData","inputs":[{"name":"courseId","type":"uint256","internalType":"uint256"}],"outputs":[],"stateMutability":"payable"},{"type":"function","name":"renounceOwnership","inputs":[],"outputs":[],"stateMutability":"nonpayable"},{"type":"function","name":"rewardNFTAndUpdateData","inputs":[{"name":"tokenId","type":"uint256","internalType":"uint256"}],"outputs":[],"stateMutability":"nonpayable"},{"type":"function","name":"s_courseAddress","inputs":[],"outputs":[{"name":"","type":"address","internalType":"address"}],"stateMutability":"view"},{"type":"function","name":"safeTransferFrom","inputs":[{"name":"from","type":"address","internalType":"address"},{"name":"to","type":"address","internalType":"address"},{"name":"tokenId","type":"uint256","internalType":"uint256"}],"outputs":[],"stateMutability":"nonpayable"},{"type":"function","name":"safeTransferFrom","inputs":[{"name":"from","type":"address","internalType":"address"},{"name":"to","type":"address","internalType":"address"},{"name":"tokenId","type":"uint256","internalType":"uint256"},{"name":"data","type":"bytes","internalType":"bytes"}],"outputs":[],"stateMutability":"nonpayable"},{"type":"function","name":"setApprovalForAll","inputs":[{"name":"operator","type":"address","internalType":"address"},{"name":"approved","type":"bool","internalType":"bool"}],"outputs":[],"stateMutability":"nonpayable"},{"type":"function","name":"setGoalDetails","inputs":[{"name":"goalId","type":"uint256","internalType":"uint256"},{"name":"goalDescription","type":"string","internalType":"string"}],"outputs":[],"stateMutability":"nonpayable"},{"type":"function","name":"supportsInterface","inputs":[{"name":"interfaceId","type":"bytes4","internalType":"bytes4"}],"outputs":[{"name":"","type":"bool","internalType":"bool"}],"stateMutability":"view"},{"type":"function","name":"symbol","inputs":[],"outputs":[{"name":"","type":"string","internalType":"string"}],"stateMutability":"view"},{"type":"function","name":"tokenByIndex","inputs":[{"name":"index","type":"uint256","internalType":"uint256"}],"outputs":[{"name":"","type":"uint256","internalType":"uint256"}],"stateMutability":"view"},{"type":"function","name":"tokenOfOwnerByIndex","inputs":[{"name":"owner","type":"address","internalType":"address"},{"name":"index","type":"uint256","internalType":"uint256"}],"outputs":[{"name":"","type":"uint256","internalType":"uint256"}],"stateMutability":"view"},{"type":"function","name":"tokenURI","inputs":[{"name":"tokenId","type":"uint256","internalType":"uint256"}],"outputs":[{"name":"","type":"string","internalType":"string"}],"stateMutability":"view"},{"type":"function","name":"totalSupply","inputs":[],"outputs":[{"name":"","type":"uint256","internalType":"uint256"}],"stateMutability":"view"},{"type":"function","name":"transferFrom","inputs":[{"name":"from","type":"address","internalType":"address"},{"name":"to","type":"address","internalType":"address"},{"name":"tokenId","type":"uint256","internalType":"uint256"}],"outputs":[],"stateMutability":"nonpayable"},{"type":"function","name":"transferOwnership","inputs":[{"name":"newOwner","type":"address","internalType":"address"}],"outputs":[],"stateMutability":"nonpayable"},{"type":"event","name":"Approval","inputs":[{"name":"owner","type":"address","indexed":true,"internalType":"address"},{"name":"approved","type":"address","indexed":true,"internalType":"address"},{"name":"tokenId","type":"uint256","indexed":true,"internalType":"uint256"}],"anonymous":false},{"type":"event","name":"ApprovalForAll","inputs":[{"name":"owner","type":"address","indexed":true,"internalType":"address"},{"name":"operator","type":"address","indexed":true,"internalType":"address"},{"name":"approved","type":"bool","indexed":false,"internalType":"bool"}],"anonymous":false},{"type":"event","name":"GoalCompleted","inputs":[{"name":"owner","type":"address","indexed":true,"internalType":"address"},{"name":"tokenId","type":"uint256","indexed":true,"internalType":"uint256"},{"name":"goalId","type":"uint256","indexed":false,"internalType":"uint256"}],"anonymous":false},{"type":"event","name":"OwnershipTransferred","inputs":[{"name":"previousOwner","type":"address","indexed":true,"internalType":"address"},{"name":"newOwner","type":"address","indexed":true,"internalType":"address"}],"anonymous":false},{"type":"event","name":"Transfer","inputs":[{"name":"from","type":"address","indexed":true,"internalType":"address"},{"name":"to","type":"address","indexed":true,"internalType":"address"},{"name":"tokenId","type":"uint256","indexed":true,"internalType":"uint256"}],"anonymous":false},{"type":"error","name":"ERC721EnumerableForbiddenBatchMint","inputs":[]},{"type":"error","name":"ERC721IncorrectOwner","inputs":[{"name":"sender","type":"address","internalType":"address"},{"name":"tokenId","type":"uint256","internalType":"uint256"},{"name":"owner","type":"address","internalType":"address"}]},{"type":"error","name":"ERC721InsufficientApproval","inputs":[{"name":"operator","type":"address","internalType":"address"},{"name":"tokenId","type":"uint256","internalType":"uint256"}]},{"type":"error","name":"ERC721InvalidApprover","inputs":[{"name":"approver","type":"address","internalType":"address"}]},{"type":"error","name":"ERC721InvalidOperator","inputs":[{"name":"operator","type":"address","internalType":"address"}]},{"type":"error","name":"ERC721InvalidOwner","inputs":[{"name":"owner","type":"address","internalType":"address"}]},{"type":"error","name":"ERC721InvalidReceiver","inputs":[{"name":"receiver","type":"address","internalType":"address"}]},{"type":"error","name":"ERC721InvalidSender","inputs":[{"name":"sender","type":"address","internalType":"address"}]},{"type":"error","name":"ERC721NonexistentToken","inputs":[{"name":"tokenId","type":"uint256","internalType":"uint256"}]},{"type":"error","name":"ERC721OutOfBoundsIndex","inputs":[{"name":"owner","type":"address","internalType":"address"},{"name":"index","type":"uint256","internalType":"uint256"}]},{"type":"error","name":"OwnableInvalidOwner","inputs":[{"name":"owner","type":"address","internalType":"address"}]},{"type":"error","name":"OwnableUnauthorizedAccount","inputs":[{"name":"account","type":"address","internalType":"address"}]}],"bytecode":{"object":"0x60806040523480156200001157600080fd5b50604051620024de380380620024de8339810160408190526200003491620001d5565b3383836000620000458382620002f3565b506001620000548282620002f3565b5050506001600160a01b0381166200008657604051631e4fbdf760e01b81526000600482015260240160405180910390fd5b6200009181620000bb565b50600b80546001600160a01b0319166001600160a01b039290921691909117905550620003bf9050565b600a80546001600160a01b038381166001600160a01b0319831681179093556040519116919082907f8be0079c531659141344cd1fd0a4f28419497f9722a3daafe3b4186f6b6457e090600090a35050565b634e487b7160e01b600052604160045260246000fd5b600082601f8301126200013557600080fd5b81516001600160401b03808211156200015257620001526200010d565b604051601f8301601f19908116603f011681019082821181831017156200017d576200017d6200010d565b81604052838152602092508660208588010111156200019b57600080fd5b600091505b83821015620001bf5785820183015181830184015290820190620001a0565b6000602085830101528094505050505092915050565b600080600060608486031215620001eb57600080fd5b83516001600160401b03808211156200020357600080fd5b620002118783880162000123565b945060208601519150808211156200022857600080fd5b50620002378682870162000123565b604086015190935090506001600160a01b03811681146200025757600080fd5b809150509250925092565b600181811c908216806200027757607f821691505b6020821081036200029857634e487b7160e01b600052602260045260246000fd5b50919050565b601f821115620002ee576000816000526020600020601f850160051c81016020861015620002c95750805b601f850160051c820191505b81811015620002ea57828155600101620002d5565b5050505b505050565b81516001600160401b038111156200030f576200030f6200010d565b620003278162000320845462000262565b846200029e565b602080601f8311600181146200035f5760008415620003465750858301515b600019600386901b1c1916600185901b178555620002ea565b600085815260208120601f198616915b8281101562000390578886015182559484019460019091019084016200036f565b5085821015620003af5787850151600019600388901b60f8161c191681555b5050505050600190811b01905550565b61210f80620003cf6000396000f3fe6080604052600436106101b75760003560e01c80636352211e116100ec57806395d89b411161008a578063c87b56dd11610064578063c87b56dd14610501578063e985e9c514610521578063f2fde38b14610541578063ffc9896b1461056157600080fd5b806395d89b41146104ac578063a22cb465146104c1578063b88d4fde146104e157600080fd5b806377b8ecc5116100c657806377b8ecc5146103e75780637d4cd847146104075780638291af951461046e5780638da5cb5b1461048e57600080fd5b80636352211e1461039257806370a08231146103b2578063715018a6146103d257600080fd5b806323b872dd1161015957806342842e0e1161013357806342842e0e1461031f5780634932ea081461033f5780634f6ccce71461035257806361449ca21461037257600080fd5b806323b872dd146102bf5780632bb757c8146102df5780632f745c59146102ff57600080fd5b8063095ea7b311610195578063095ea7b31461024b57806318160ddd1461026d5780631c38a50d1461028c5780631d61eaac1461029f57600080fd5b806301ffc9a7146101bc57806306fdde03146101f1578063081812fc14610213575b600080fd5b3480156101c857600080fd5b506101dc6101d7366004611ab7565b61058e565b60405190151581526020015b60405180910390f35b3480156101fd57600080fd5b5061020661059f565b6040516101e89190611b24565b34801561021f57600080fd5b5061023361022e366004611b37565b610631565b6040516001600160a01b0390911681526020016101e8565b34801561025757600080fd5b5061026b610266366004611b6c565b61065a565b005b34801561027957600080fd5b506008545b6040519081526020016101e8565b61026b61029a366004611b37565b610669565b3480156102ab57600080fd5b50600b54610233906001600160a01b031681565b3480156102cb57600080fd5b5061026b6102da366004611b96565b610810565b3480156102eb57600080fd5b5061026b6102fa366004611c5e565b61089b565b34801561030b57600080fd5b5061027e61031a366004611b6c565b61090f565b34801561032b57600080fd5b5061026b61033a366004611b96565b610974565b61026b61034d366004611b37565b61098f565b34801561035e57600080fd5b5061027e61036d366004611b37565b610a1e565b34801561037e57600080fd5b5061020661038d366004611b37565b610a77565b34801561039e57600080fd5b506102336103ad366004611b37565b610b11565b3480156103be57600080fd5b5061027e6103cd366004611cb9565b610b1c565b3480156103de57600080fd5b5061026b610b64565b3480156103f357600080fd5b5061026b610402366004611b37565b610b78565b34801561041357600080fd5b5061044c610422366004611b37565b600c6020526000908152604090208054600182015460028301546003909301549192909160ff1684565b60408051948552602085019390935291830152151560608201526080016101e8565b34801561047a57600080fd5b5061026b610489366004611cd4565b610c8e565b34801561049a57600080fd5b50600a546001600160a01b0316610233565b3480156104b857600080fd5b50610206610d8a565b3480156104cd57600080fd5b5061026b6104dc366004611d16565b610d99565b3480156104ed57600080fd5b5061026b6104fc366004611d52565b610da4565b34801561050d57600080fd5b5061020661051c366004611b37565b610dbb565b34801561052d57600080fd5b506101dc61053c366004611dce565b610e30565b34801561054d57600080fd5b5061026b61055c366004611cb9565b610e5e565b34801561056d57600080fd5b5061058161057c366004611cb9565b610e99565b6040516101e89190611e3d565b600061059982610fe7565b92915050565b6060600080546105ae90611e9e565b80601f01602080910402602001604051908101604052809291908181526020018280546105da90611e9e565b80156106275780601f106105fc57610100808354040283529160200191610627565b820191906000526020600020905b81548152906001019060200180831161060a57829003601f168201915b5050505050905090565b600061063c8261100c565b506000828152600460205260409020546001600160a01b0316610599565b610665828233611045565b5050565b600061067482610b11565b6001600160a01b0316036106c45760405162461bcd60e51b815260206004820152601260248201527113919508191bd95cc81b9bdd08195e1a5cdd60721b60448201526064015b60405180910390fd5b670de0b6b3a76400003410156107115760405162461bcd60e51b8152602060048201526012602482015271496e73756666696369656e742066756e647360701b60448201526064016106bb565b61072461071d82610b11565b3383611052565b336000908152600e60209081526040822080546001810182559083529120018190556000818152600c6020526040902060020154421180159061077957506000818152600c602052604090206003015460ff16155b1561080d576000818152600c60205260409081902060038101805460ff19166001179055549051829133917f5fdb120e2225930f6b50914ed30f8f8b37a0a6c7b6df7b1f0f7f235791bfc341916107d39190815260200190565b60405180910390a36000908152600c6020908152604080832054338452600e83529083206001908101805491820181558452919092200155565b50565b6001600160a01b03821661083a57604051633250574960e11b8152600060048201526024016106bb565b6000610847838333611102565b9050836001600160a01b0316816001600160a01b031614610895576040516364283d7b60e01b81526001600160a01b03808616600483015260248201849052821660448201526064016106bb565b50505050565b6108a3611117565b6000821180156108b45750600a8211155b6108f25760405162461bcd60e51b815260206004820152600f60248201526e125b9d985b1a590819dbd85b081251608a1b60448201526064016106bb565b6000828152600d6020526040902061090a8282611f28565b505050565b600061091a83610b1c565b821061094b5760405163295f44f760e21b81526001600160a01b0384166004820152602481018390526044016106bb565b506001600160a01b03919091166000908152600660209081526040808320938352929052205490565b61090a83838360405180602001604052806000815250610da4565b600b54604051636111ca2160e01b8152336004820152602481018390526001600160a01b0390911690636111ca2190604401600060405180830381600087803b1580156109db57600080fd5b505af11580156109ef573d6000803e3d6000fd5b5050336000908152600e60209081526040822060020180546001810182559083529120018390555061080d9050565b6000610a2960085490565b8210610a525760405163295f44f760e21b815260006004820152602481018390526044016106bb565b60088281548110610a6557610a65611fe8565b90600052602060002001549050919050565b600d6020526000908152604090208054610a9090611e9e565b80601f0160208091040260200160405190810160405280929190818152602001828054610abc90611e9e565b8015610b095780601f10610ade57610100808354040283529160200191610b09565b820191906000526020600020905b815481529060010190602001808311610aec57829003601f168201915b505050505081565b60006105998261100c565b60006001600160a01b038216610b48576040516322718ad960e21b8152600060048201526024016106bb565b506001600160a01b031660009081526003602052604090205490565b610b6c611117565b610b766000611144565b565b610b80611117565b6000610b8b82610b11565b6001600160a01b031603610bd65760405162461bcd60e51b815260206004820152601260248201527113919508191bd95cc81b9bdd08195e1a5cdd60721b60448201526064016106bb565b6000818152600c602052604090206003015460ff16610c2c5760405162461bcd60e51b815260206004820152601260248201527111dbd85b081b9bdd0818dbdb5c1b195d195960721b60448201526064016106bb565b6000610c3760085490565b610c42906001612014565b9050610c56610c5083610b11565b82611196565b610665610c6283610b11565b6001600160a01b03166000908152600e6020908152604082208054600181018255908352912001829055565b610c96611117565b600083118015610ca75750600a8311155b610ce55760405162461bcd60e51b815260206004820152600f60248201526e125b9d985b1a590819dbd85b081251608a1b60448201526064016106bb565b808210610d295760405162461bcd60e51b8152602060048201526012602482015271496e76616c696420646174652072616e676560701b60448201526064016106bb565b610d338585611196565b604080516080810182529384526020808501938452848201928352600060608601818152968152600c90915220925183559051600183015551600282015590516003909101805460ff191691151591909117905550565b6060600180546105ae90611e9e565b6106653383836111fb565b610daf848484610810565b6108958484848461129a565b6060610dc68261100c565b506000610dde60408051602081019091526000815290565b90506000815111610dfe5760405180602001604052806000815250610e29565b80610e08846113c3565b604051602001610e19929190612027565b6040516020818303038152906040525b9392505050565b6001600160a01b03918216600090815260056020908152604080832093909416825291909152205460ff1690565b610e66611117565b6001600160a01b038116610e9057604051631e4fbdf760e01b8152600060048201526024016106bb565b61080d81611144565b610ebd60405180606001604052806060815260200160608152602001606081525090565b6001600160a01b0382166000908152600e602090815260409182902082518154608093810282018401909452606081018481529093919284928491840182828015610f2757602002820191906000526020600020905b815481526020019060010190808311610f13575b5050505050815260200160018201805480602002602001604051908101604052809291908181526020018280548015610f7f57602002820191906000526020600020905b815481526020019060010190808311610f6b575b5050505050815260200160028201805480602002602001604051908101604052809291908181526020018280548015610fd757602002820191906000526020600020905b815481526020019060010190808311610fc3575b5050505050815250509050919050565b60006001600160e01b0319821663780e9d6360e01b1480610599575061059982611456565b6000818152600260205260408120546001600160a01b03168061059957604051637e27328960e01b8152600481018490526024016106bb565b61090a83838360016114a6565b6001600160a01b03821661107c57604051633250574960e11b8152600060048201526024016106bb565b600061108a83836000611102565b90506001600160a01b0381166110b657604051637e27328960e01b8152600481018390526024016106bb565b836001600160a01b0316816001600160a01b031614610895576040516364283d7b60e01b81526001600160a01b03808616600483015260248201849052821660448201526064016106bb565b600061110f8484846115ac565b949350505050565b600a546001600160a01b03163314610b765760405163118cdaa760e01b81523360048201526024016106bb565b600a80546001600160a01b038381166001600160a01b0319831681179093556040519116919082907f8be0079c531659141344cd1fd0a4f28419497f9722a3daafe3b4186f6b6457e090600090a35050565b6001600160a01b0382166111c057604051633250574960e11b8152600060048201526024016106bb565b60006111ce83836000611102565b90506001600160a01b0381161561090a576040516339e3563760e11b8152600060048201526024016106bb565b6001600160a01b03821661122d57604051630b61174360e31b81526001600160a01b03831660048201526024016106bb565b6001600160a01b03838116600081815260056020908152604080832094871680845294825291829020805460ff191686151590811790915591519182527f17307eab39ab6107e8899845ad3d59bd9653f200f220920489ca2b5937696c31910160405180910390a3505050565b6001600160a01b0383163b1561089557604051630a85bd0160e11b81526001600160a01b0384169063150b7a02906112dc903390889087908790600401612056565b6020604051808303816000875af1925050508015611317575060408051601f3d908101601f1916820190925261131491810190612093565b60015b611380573d808015611345576040519150601f19603f3d011682016040523d82523d6000602084013e61134a565b606091505b50805160000361137857604051633250574960e11b81526001600160a01b03851660048201526024016106bb565b805181602001fd5b6001600160e01b03198116630a85bd0160e11b146113bc57604051633250574960e11b81526001600160a01b03851660048201526024016106bb565b5050505050565b606060006113d083611679565b600101905060008167ffffffffffffffff8111156113f0576113f0611bd2565b6040519080825280601f01601f19166020018201604052801561141a576020820181803683370190505b5090508181016020015b600019016f181899199a1a9b1b9c1cb0b131b232b360811b600a86061a8153600a850494508461142457509392505050565b60006001600160e01b031982166380ac58cd60e01b148061148757506001600160e01b03198216635b5e139f60e01b145b8061059957506301ffc9a760e01b6001600160e01b0319831614610599565b80806114ba57506001600160a01b03821615155b1561157c5760006114ca8461100c565b90506001600160a01b038316158015906114f65750826001600160a01b0316816001600160a01b031614155b801561150957506115078184610e30565b155b156115325760405163a9fbf51f60e01b81526001600160a01b03841660048201526024016106bb565b811561157a5783856001600160a01b0316826001600160a01b03167f8c5be1e5ebec7d5bd14f71427d1e84f3dd0314c0f7b2291e5b200ac8c7c3b92560405160405180910390a45b505b5050600090815260046020526040902080546001600160a01b0319166001600160a01b0392909216919091179055565b6000806115ba858585611751565b90506001600160a01b0381166116175761161284600880546000838152600960205260408120829055600182018355919091527ff3f7a9fe364faab93b216da50a3214154f22a0a2b415b23a84c8169e8b636ee30155565b61163a565b846001600160a01b0316816001600160a01b03161461163a5761163a818561184a565b6001600160a01b03851661165657611651846118db565b61110f565b846001600160a01b0316816001600160a01b03161461110f5761110f858561198a565b60008072184f03e93ff9f4daa797ed6e38ed64bf6a1f0160401b83106116b85772184f03e93ff9f4daa797ed6e38ed64bf6a1f0160401b830492506040015b6d04ee2d6d415b85acef810000000083106116e4576d04ee2d6d415b85acef8100000000830492506020015b662386f26fc10000831061170257662386f26fc10000830492506010015b6305f5e100831061171a576305f5e100830492506008015b612710831061172e57612710830492506004015b60648310611740576064830492506002015b600a83106105995760010192915050565b6000828152600260205260408120546001600160a01b039081169083161561177e5761177e8184866119da565b6001600160a01b038116156117bc5761179b6000856000806114a6565b6001600160a01b038116600090815260036020526040902080546000190190555b6001600160a01b038516156117eb576001600160a01b0385166000908152600360205260409020805460010190555b60008481526002602052604080822080546001600160a01b0319166001600160a01b0389811691821790925591518793918516917fddf252ad1be2c89b69c2b068fc378daa952ba7f163c4a11628f55a4df523b3ef91a4949350505050565b600061185583610b1c565b6000838152600760205260409020549091508082146118a8576001600160a01b03841660009081526006602090815260408083208584528252808320548484528184208190558352600790915290208190555b5060009182526007602090815260408084208490556001600160a01b039094168352600681528383209183525290812055565b6008546000906118ed906001906120b0565b6000838152600960205260408120546008805493945090928490811061191557611915611fe8565b90600052602060002001549050806008838154811061193657611936611fe8565b600091825260208083209091019290925582815260099091526040808220849055858252812055600880548061196e5761196e6120c3565b6001900381819060005260206000200160009055905550505050565b6000600161199784610b1c565b6119a191906120b0565b6001600160a01b039093166000908152600660209081526040808320868452825280832085905593825260079052919091209190915550565b6119e5838383611a3e565b61090a576001600160a01b038316611a1357604051637e27328960e01b8152600481018290526024016106bb565b60405163177e802f60e01b81526001600160a01b0383166004820152602481018290526044016106bb565b60006001600160a01b0383161580159061110f5750826001600160a01b0316846001600160a01b03161480611a785750611a788484610e30565b8061110f5750506000908152600460205260409020546001600160a01b03908116911614919050565b6001600160e01b03198116811461080d57600080fd5b600060208284031215611ac957600080fd5b8135610e2981611aa1565b60005b83811015611aef578181015183820152602001611ad7565b50506000910152565b60008151808452611b10816020860160208601611ad4565b601f01601f19169290920160200192915050565b602081526000610e296020830184611af8565b600060208284031215611b4957600080fd5b5035919050565b80356001600160a01b0381168114611b6757600080fd5b919050565b60008060408385031215611b7f57600080fd5b611b8883611b50565b946020939093013593505050565b600080600060608486031215611bab57600080fd5b611bb484611b50565b9250611bc260208501611b50565b9150604084013590509250925092565b634e487b7160e01b600052604160045260246000fd5b600067ffffffffffffffff80841115611c0357611c03611bd2565b604051601f8501601f19908116603f01168101908282118183101715611c2b57611c2b611bd2565b81604052809350858152868686011115611c4457600080fd5b858560208301376000602087830101525050509392505050565b60008060408385031215611c7157600080fd5b82359150602083013567ffffffffffffffff811115611c8f57600080fd5b8301601f81018513611ca057600080fd5b611caf85823560208401611be8565b9150509250929050565b600060208284031215611ccb57600080fd5b610e2982611b50565b600080600080600060a08688031215611cec57600080fd5b611cf586611b50565b97602087013597506040870135966060810135965060800135945092505050565b60008060408385031215611d2957600080fd5b611d3283611b50565b915060208301358015158114611d4757600080fd5b809150509250929050565b60008060008060808587031215611d6857600080fd5b611d7185611b50565b9350611d7f60208601611b50565b925060408501359150606085013567ffffffffffffffff811115611da257600080fd5b8501601f81018713611db357600080fd5b611dc287823560208401611be8565b91505092959194509250565b60008060408385031215611de157600080fd5b611dea83611b50565b9150611df860208401611b50565b90509250929050565b60008151808452602080850194506020840160005b83811015611e3257815187529582019590820190600101611e16565b509495945050505050565b602081526000825160606020840152611e596080840182611e01565b90506020840151601f1980858403016040860152611e778383611e01565b9250604086015191508085840301606086015250611e958282611e01565b95945050505050565b600181811c90821680611eb257607f821691505b602082108103611ed257634e487b7160e01b600052602260045260246000fd5b50919050565b601f82111561090a576000816000526020600020601f850160051c81016020861015611f015750805b601f850160051c820191505b81811015611f2057828155600101611f0d565b505050505050565b815167ffffffffffffffff811115611f4257611f42611bd2565b611f5681611f508454611e9e565b84611ed8565b602080601f831160018114611f8b5760008415611f735750858301515b600019600386901b1c1916600185901b178555611f20565b600085815260208120601f198616915b82811015611fba57888601518255948401946001909101908401611f9b565b5085821015611fd85787850151600019600388901b60f8161c191681555b5050505050600190811b01905550565b634e487b7160e01b600052603260045260246000fd5b634e487b7160e01b600052601160045260246000fd5b8082018082111561059957610599611ffe565b60008351612039818460208801611ad4565b83519083019061204d818360208801611ad4565b01949350505050565b6001600160a01b038581168252841660208201526040810183905260806060820181905260009061208990830184611af8565b9695505050505050565b6000602082840312156120a557600080fd5b8151610e2981611aa1565b8181038181111561059957610599611ffe565b634e487b7160e01b600052603160045260246000fdfea2646970667358221220c091ea81ecde88a39dff36252c65c4dbf5ef1270624e204682d3453f112c935964736f6c63430008160033","linkReferences":{}},"methodIdentifiers":{"approve(address,uint256)":"095ea7b3","balanceOf(address)":"70a08231","buyNFTAndUpdateData(uint256)":"1c38a50d","getApproved(uint256)":"081812fc","getUserData(address)":"ffc9896b","goals(uint256)":"61449ca2","isApprovedForAll(address,address)":"e985e9c5","mintNFT(address,uint256,uint256,uint256,uint256)":"8291af95","name()":"06fdde03","nftDetails(uint256)":"7d4cd847","owner()":"8da5cb5b","ownerOf(uint256)":"6352211e","purchaseCourseAndUpdateData(uint256)":"4932ea08","renounceOwnership()":"715018a6","rewardNFTAndUpdateData(uint256)":"77b8ecc5","s_courseAddress()":"1d61eaac","safeTransferFrom(address,address,uint256)":"42842e0e","safeTransferFrom(address,address,uint256,bytes)":"b88d4fde","setApprovalForAll(address,bool)":"a22cb465","setGoalDetails(uint256,string)":"2bb757c8","supportsInterface(bytes4)":"01ffc9a7","symbol()":"95d89b41","tokenByIndex(uint256)":"4f6ccce7","tokenOfOwnerByIndex(address,uint256)":"2f745c59","tokenURI(uint256)":"c87b56dd","totalSupply()":"18160ddd","transferFrom(address,address,uint256)":"23b872dd","transferOwnership(address)":"f2fde38b"},"id":14}